:100000000C9434000C9451000C9451000C94AC00EE
:100010000C9451000C9451000C9451000C9451001C
:100020000C9451000C9451000C9451000C9451000C
:100030000C9451000C9451000C9451000C945100FC
:100040000C94C3000C9451000C9451000C9451007A
:100050000C9451000C94E6000C9451000C94510047
:100060000C9451000C94510011241FBECFEFD8E026
:10007000DEBFCDBF11E0A0E0B1E0EAE0F2E002C0F7
:1000800005900D92A032B107D9F721E0A0E2B1E0CE
:1000900001C01D92A432B207E1F70E9488000C94BF
:1000A00003010C940000E1E6F0E080E8808383E047
:1000B000808314BC85B5846085BD8EE986BD0895B6
:1000C000ECE7F0E01082808183668083EAE7F0E06D
:1000D000108280818B6A808310927B000895F8944F
:1000E0008FEF8AB91BB887B918B814B885B983E0FF
:1000F00080936B0081E0809368000E9460000E9402
:100100005300EAE7F0E0808180648083789408956A
:100110000E946F0088B1816088B9809123018BB9FA
:1001200088B188B988B1826088B9E0912101F0E096
:10013000EE0FFF1FE050FF4F80818BB918B884E0AD
:1001400088B9E0912001F0E0EE0FFF1FE050FF4F73
:1001500080818BB918B8DECF1F920F920FB60F9225
:1001600011248F9383B18093220185B3816085BB75
:100170008EE986BD81E080936E008F910F900FBE57
:100180000F901F9018951F920F920FB60F92112487
:100190008F939F9310926E0083B1909122018913E7
:1001A0000EC080FD05C0909123019F5F90932301B5
:1001B00081FD05C0809123018150809323019F918F
:1001C0008F910F900FBE0F901F9018951F920F9256
:1001D0000FB60F9211248F93809121018F3020F45C
:1001E0008F5F8093210109C08F3038F01092210178
:1001F000809120018F5F809320018F910F900FBE1F
:0A0200000F901F901895F894FFCF9F
:10020A003F0006005B004F0066006D007D0007009E
:10021A007F006F0077007C0039005E007900710072
:00000001FF
