S00E00004C61622030342E7372656383
S11300000C9434000C9451000C9451000C94B400E2
S11300100C9451000C9451000C9451000C94510018
S11300200C9451000C9451000C9451000C94510008
S11300300C9451000C9451000C9451000C945100F8
S11300400C94CB000C9451000C9451000C9451006E
S11300500C9451000C94EE000C9451000C9451003B
S11300600C9451000C94510011241FBECFEFD8E022
S1130070DEBFCDBF11E0A0E0B1E0E4E1F2E002C0F8
S113008005900D92A032B107D9F721E0A0E2B1E0CA
S113009001C01D92A532B207E1F70E948A000C94B8
S11300A008010C940000E1E6F0E080E8808383E03E
S11300B0808314BC85B5846085BD8EE986BD0895B2
S11300C0ECE7F0E01082808183668083EAE7F0E069
S11300D0108280818B6A808310927B000895F8944B
S11300E09FEF9AB91BB887B1876187B918B814B85C
S11300F095B983E080936B0081E0809368000E944F
S113010060000E945300EAE7F0E08081806480830D
S1130110789408950E946F0088B1816088B98091B5
S113012024018BB988B18E7F88B988B1846088B97D
S1130130E0912201F0E0EE0FFF1FE050FF4F8081BD
S11301408BB988B18B7F88B988B1826088B9E09116
S11301502101F0E0EE0FFF1FE050FF4F80818BB9CB
S113016088B18D7F88B9D8CF1F920F920FB60F92A6
S113017011248F9383B18093230185B3816085BB60
S11301808EE986BD81E080936E008F910F900FBE43
S11301900F901F9018951F920F920FB60F92112473
S11301A08F939F9310926E0083B1909123018913D2
S11301B00EC080FD05C0909124019F5F909324019F
S11301C081FD05C0809124018150809324019F9179
S11301D08F910F900FBE0F901F9018951F920F9242
S11301E00FB60F9211248F939F938091790080937F
S11301F02001982F9F709093220182958F70809395
S113020021019F918F910F900FBE0F901F90189511
S1070210F894FFCF8C
S11302143F0006005B004F0066006D007D00070090
S11302247F006F0077007C0039005E007900710064
S9030000FC
