:020000020000FC
:100000000FEF0DBF08E00EBF00E00AB90FEF0BB90C
:1000100004B900E005B90FEF07B900E008B920E026
:1000200010E03FEF60E050E009B13017E9F3302F06
:10003000489B0E942900499B0E9430004A9B0E94D5
:1000400037004B9B0E943E004C9B0E9445000C9445
:1000500014000E948F0009B1489B0E94530008952C
:100060000E948F0009B1499B0E94610008950E947F
:100070008F0009B14A9B0E946F0008950E948F0073
:1000800009B14B9B0E947F0008950E948F0009B127
:100090004C9B0E944C00089512955527510F520F0A
:1000A000129558B9089500FF23950E945C006627B9
:1000B000620F610F65B90895203109F00895222774
:1000C000089501FF2A950E946A006627620F610F5A
:1000D00065B908952F3F09F008952FE0089502FFB4
:1000E000129513950E947A0012956627610F620F90
:1000F00065B90895103109F008951127089503FF97
:1001000012951A950E948A0012956627610F620F58
:1001100065B908951F3F09F008951FE008954FEF56
:100120004A954030E9F74FEF4A954030E9F74FEFF5
:100130004A954030E9F74FEF4A954030E9F74FEFE5
:080140004A954030E9F70895EB
:00000001FF
