:020000020000FC
:100000000FEF0DBF08E00EBF00E00AB90FEF0BB90C
:1000100004B900E005B920E010E03FEF40E009B18D
:100020003017E9F3302F489B0E942100499B0E9422
:1000300028004A9B0E942F004B9B0E9436000C9484
:100040000F000E94710009B1489B0E943D00089575
:100050000E94710009B1499B0E94490008950E94C5
:10006000710009B14A9B0E94550008950E947100D9
:1000700009B14B9B0E946300089500FF23950E94E5
:100080004400420F45B90895203109F00895222710
:10009000089501FF2A950E945000420F45B9089526
:1000A0002F3F09F008952FE0089502FF1295139550
:1000B0000E945E001295410F45B90895103109F074
:1000C00008951127089503FF12951A950E946C0058
:1000D0001295410F45B908951F3F09F008951FE09B
:1000E00008954FEF4A954030E9F74FEF4A95403079
:1000F000E9F74FEF4A954030E9F74FEF4A95403026
:0C010000E9F74FEF4A954030E9F7089509
:00000001FF
