:020000020000FC
:100000000FEF0DBF08E00EBF00E004B90FEF05B918
:100010000AB900E00BB90FEF07B900E008B920E01A
:1000200010E03FEF60E050E003B13017E9F3302F0C
:10003000189B0E942900199B0E9430001A9B0E9465
:1000400037001B9B0E943E001C9B0E9445000C94A5
:1000500014000E948F0003B1189B0E945300089562
:100060000E948F0003B1199B0E94610008950E94B5
:100070008F0003B11A9B0E946F0008950E948F00A9
:1000800003B11B9B0E947F0008950E948F0003B163
:100090001C9B0E944C00089512955527510F520F3A
:1000A000129558B9089500FF23950E945C006627B9
:1000B000620F610F6BB90895203109F0089522276E
:1000C000089501FF2A950E946A006627620F610F5A
:1000D0006BB908952F3F09F008952FE0089502FFAE
:1000E000129513950E947A0012956627610F620F90
:1000F0006BB90895103109F008951127089503FF91
:1001000012951A950E948A0012956627610F620F58
:100110006BB908951F3F09F008951FE008954FEF50
:100120004A954030E9F74FEF4A954030E9F74FEFF5
:100130004A954030E9F74FEF4A954030E9F74FEFE5
:080140004A954030E9F70895EB
:00000001FF
